:040000004AEF00F0D3
:100008001082FACF01F0FBCF02F0E9CF03F0EACF7C
:1000180004F0E1CF05F0E2CF06F0D9CF07F0DACF50
:1000280008F0F3CF09F0F4CF0AF0F6CF0BF0F7CFD2
:100038000CF0F8CF0DF0F5CF0EF0F2BAF2A408D01C
:10004800F29480A602D08AB602D08A8601D08A9617
:100058000EC0F5FF0DC0F8FF0CC0F7FF0BC0F6FF90
:100068000AC0F4FF09C0F3FF08C0DAFF07C0D9FFD0
:1000780006C0E2FF05C0E1FF04C0EAFF03C0E9FFD4
:1000880002C0FBFF01C0FAFF109211006AEF00F0F6
:100098000F6E0F507F0BD56E000ED76E000ED66E0A
:1000A800F2940FAE02D0F28A01D0F29AD58E1200E5
:1000B800000E936E010E8A6E92860F015B97780E82
:1000C800D36E910E4CEC00F0F28EFFD71090109288
:0600D80000015CEF00F0E6
:020000040020DA
:08000000FFFFFFFFFFFFFFFF00
:020000040030CA
:0E00000000285F3CFFD1A1FF03C003E00340D6
:00000001FF
